:020000020000FC
:020000002BC013
:020010000DC120
:02003400ECC01E
:10004000CBC0407924301912027800101F1C1F1EEB
:100050001F1E1F1F1E1F1E1FF8940FEF0DBF08E06D
:100060000EBF00E80093610004E0009361000E946D
:100070002B0100EF07B90FE008B90FEF04B901E059
:1000800005B90FEF0AB902E00BB902E0009368006E
:100090000FE000936C000AE0A02E00E8902E3327BA
:1000A00000E000930101009300010093030100931D
:1000B000020121E040E001E0802E0E94AE00789431
:1000C00060FD0E94670061FD0E949900F9CF6E7F7C
:1000D0000091010103950A3029F5002700930101E1
:1000E000009100010395063001F5002700930001FF
:1000F00000910301109102010395123051F4043074
:1001000041F400271127009303011093020162605C
:100110000FC00A3011F400271395009303011093C8
:10012000020106C00093010103C00093000100C05A
:1001300008956D7F871491F08394009105010395D4
:100140000A3049F40027009305010091040103954A
:1001500000930401089500930501089501E0802EA5
:1001600001E00093050100E0009304014C3009F424
:100170004427F0E0ECE4E40F749043954A3021F01A
:100180004B3011F04C3041F401E0009306014A1964
:10019000409307014A0D089500E000930601409343
:1001A0000701089550FD5090010151FD509000014C
:1001B00052FD5090030153FD50900201089550FDEF
:1001C0005090070151FD5090060152FD50900501DD
:1001D00053FD5090040108950F930FB70F9355B13D
:1001E000550F503109F451E02BB0292020FD0E9419
:1001F000D20021FD0E94DF00F0E0E2E4E50D649012
:10020000262855B92BB80F910FBF0F9118950F9352
:100210000FB70F932BB029242BB83395313011F43D
:10022000332761600F910FBF0F9118950F930FB790
:100230000F9336B032FE220F33FE2695203019F090
:10024000203819F004C020E402C021E000C00F9162
:100250000FBF0F91189500E004BD02E005BD03E853
:1002600006BD00E00093800002E0009381000BE0F7
:100270001CED009385001093840001E000936E0054
:0802800001E000936F000895F6
:00000001FF
