:020000020000FC
:0200000025C019
:0200340046C0C4
:1000400023C040792430191202780010F8940FEF81
:100050000DBF08E00EBF00E80093610004E00093CC
:1000600061000E9483000FEF04B901E005B90FEFB2
:100070000AB902E00BB941E090E8332759E065E0A6
:1000800079E081E07894FFCF0F930FB70F9345B1DC
:10009000440F403109F441E01BB1107840FD252F99
:1000A00041FD262F42FD272F43FD282FF0E0E2E4FB
:1000B000E20F0491102B45B91BB90F910FBF0F919F
:1000C00018950F930FB70F931BB119271BB93395D1
:1000D0003130A9F4332753955A3089F45527639565
:1000E000663069F466277395823029F4743019F408
:1000F0007727882704C07A3011F4772783950F91EA
:100100000FBF0F91189500E004BD02E005BD03E8A4
:1001100006BD00E00093800002E0009381000BE048
:100120001CED009385001093840001E000936E00A5
:0801300001E000936F00089547
:00000001FF
