:020000020000FC
:020000002BC013
:020010007DC1B0
:0200340055C1B4
:1000400015C1407924301912027800101F1C1F1EA0
:100050001F1E1F1F1E1F1E1FF8940FEF0DBF08E06D
:100060000EBF00E80093610004E0009361000E946D
:10007000A1010FEF04B901E005B90FEF0AB902E0E1
:100080000BB900EF07B90FE008B902E00093680070
:100090000FE000936C000AE0A02E00E8902E3327BA
:1000A00000E000930101009300010093030100931D
:1000B000020121E040E001E0802E0E94F8007894E7
:1000C00060FD0E94A40061FD0E94E30062FD0E94A9
:1000D000D90063FD0E946D00F3CF677F243019F0D3
:1000E0002830C1F0089500910101003059F409E071
:1000F0000093010100910001003041F405E00093FC
:10010000000108950A950093010108950A9500934E
:100110000001089500910301003071F409E000939B
:10012000030100910201003059F402E00093020142
:1001300003E00093030108950A95009303010895D5
:100140000A950093020108956E7F009101010395C5
:100150000A3049F500270093010100910001039541
:10016000063021F5002700930001243009F408959A
:1001700000910301109102010395123059F40430EB
:1001800049F400271127009303011093020123FF74
:10019000626008950A3011F400271395009303015B
:1001A0001093020108950093010108950093000146
:1001B00008956B7F24300C94A5002830C9F22031BB
:1001C00009F0089508956D7F871491F0839400914C
:1001D000050103950A3049F40027009305010091B9
:1001E0000401039500930401089500930501089507
:1001F00001E0802E01E00093050100E0009304017E
:100200004C3009F44427F0E0ECE4E40F749043959B
:100210004A3021F04B3011F04C3041F401E00093B2
:1002200006014A19409307014A0D089500E0009322
:10023000060140930701089550FD5090010151FDC2
:100240005090000152FD5090030153FD5090020167
:10025000089550FD5090070151FD5090060152FD48
:100260005090050153FD5090040108950F931F9382
:100270000FB70F9353B1550F503109F451E02BB024
:10028000292020FD0E941C0121FD0E94290122FD40
:100290000E941C0123FD0E941C01F0E0E2E4E50D38
:1002A0006490243071F0283029F0203151F0203250
:1002B00009F00EC0543061F0583051F00FE7602E55
:1002C00007C0513029F0523019F00FE7602E00C0FE
:1002D000262855B92BB80F910FBF1F910F91189574
:1002E0000F931F930FB70F932BB029242BB82130F6
:1002F00019F0223009F005C03395313011F433275D
:1003000061600F910FBF1F910F9118950F931F936D
:100310000FB70F9336B030FE646031FE686032FE76
:10032000220F33FE2695203019F0203119F004C039
:1003300028E002C021E000C00F910FBF1F910F9174
:10034000189500E004BD02E005BD03E806BD00E02D
:100350000093800002E0009381000BE01CED00930D
:1003600085001093840001E000936E0001E000938B
:040370006F0008957D
:00000001FF
