:020000020000FC
:0200000025C019
:020034004FC0BB
:1000400028C040792430191202780010F8940FEF7C
:100050000DBF08E00EBF00E80093610004E00093CC
:1000600061000E94A7000FEF04B901E005B90FEF8E
:100070000AB902E00BB900E8902E332700E00093A4
:1000800000010093010100930201009303017894A1
:10009000FFCF0F930FB70F9355B1550F503109F4A0
:1000A00051E02BB0292050FD5090000151FD50909F
:1000B000010152FD5090020153FD50900301F0E008
:1000C000E2E4E50D6490262855B92BB80F910FBFD7
:1000D0000F9118950F930FB70F932BB029242BB8BE
:1000E0003395333081F533270091000103950A30B1
:1000F00021F50027009300010091010103950630CE
:10010000F9F400270093010100910201109103010D
:100110000395123049F4043039F400271127009375
:100120000201109303010FC00A3011F40027139548
:10013000009302011093030106C00093000103C065
:100140000093010100C00F910FBF0F91189500E0BF
:1001500004BD02E005BD03E806BD00E00093800099
:1001600002E0009381000BE01CED009385001093EA
:10017000840001E000936E0001E000936F00089599
:00000001FF
