:020000020000FC
:020000002BC013
:02001000EAC242
:02003400BAC24E
:1000400052C2407924301912027800101F1C1F1E62
:100050001F1E1F1F1E1F1E1FF8940FEF0DBF08E06D
:100060000EBF00E80093610004E0009361000E946D
:100070001A030FEF04B901E005B90FEF0AB902E066
:100080000BB900EF07B90FE008B902E00093680070
:100090000FE000936C000FEF202E00E8A02E332716
:1000A00000E000930101009300010093030100931D
:1000B00002010093050100930401009307010093DE
:1000C0000601009309010093080100930B010093BE
:1000D0000A0121E04FEF01E0902EBB24772788270B
:1000E00066270E949D0178940E94860060FD0E9410
:1000F000430161FD0E94880162FD0E94780163FD59
:100100000E94D90065FD0E942602EECF20FD10C09E
:1001100021FD12C022FD0CC023FD0AC024FD0CC02D
:1001200025FD0AC026FD0CC027FD0AC0203061F065
:10013000449A4598882708954498459A88270895B1
:100140004498459880E208954498459880E308953E
:1001500000910101003059F409E000930101009180
:100160000001003041F405E00093000108950A9574
:100170000093010108950A950093000108950091EC
:100180000301003071F409E00093030100910201C2
:10019000003059F402E00093020103E000930301F0
:1001A00008950A950093030108950A9500930201AA
:1001B0000895677F243061F2283009F32031D9F1A6
:1001C000203239F0203419F0203811F008950DC193
:1001D00023C1092D013091F09A940091050100305E
:1001E00049F409E000930501009104010A95009388
:1001F000040108950A95009305010895982C082D8F
:100200000F3121F00E3149F00C3171F001E0009313
:10021000050103E000930401089500E00093050147
:1002200003E000930401089508E00093050102E053
:1002300000930401089501E0902E01E00093050170
:1002400000E00093040100910701013049F410918E
:100250000601103029F44CE003E011E01093060190
:10026000493039F409E00093070100E000930601EA
:1002700004C00A950093070100C04A95F0E0ECE441
:10028000E40F849008956E7F0091010103950A3078
:1002900049F5002700930101009100010395063004
:1002A00021F5002700930001243009F408950091FE
:1002B0000301109102010395123059F4043049F4FE
:1002C00000271127009303011093020123FF6260AE
:1002D00008950A3011F40027139500930301109339
:1002E000020108950093010108950093000108950B
:1002F0006B7F243049F22830D1F22031F1F02032E6
:1003000041F0203419F0203811F008953EC054C057
:100310006D7F981491F093940091050103950A3034
:1003200049F400270093050100910401039500930F
:100330000401089500930501089501E0902E01E065
:100340000093050100E00093040125FD0895439505
:10035000F0E0ECE4E40F849000910701023041F4F6
:1003600010910601113021F400E0009306014427AA
:10037000493039F400E00093070101E000930601E1
:1003800008950395009307010895009109010395CD
:100390000A3061F4002700930901009108010395D8
:1003A000063039F4002700930801089500930901ED
:1003B000089500930801089500910B0110910A011E
:1003C0000395123049F4043039F4002711270093C3
:1003D0000B0110930A0108950A3011F400271395B8
:1003E00000930B0110930A01089500910901003058
:1003F00059F409E00093090100910801003041F42B
:1004000005E00093080108950A95009309010895F5
:100410000A9500930801089500910B01003071F4D2
:1004200009E000930B0100910A01003059F402E049
:1004300000930A0103E000930B0108950A950093CD
:100440000B0108950A9500930A0108956F7D0091AC
:10045000010110910901011308950091000110910B
:100460000801011308950091030110910B0101137C
:1004700008950091020110910A01011308950027C7
:10048000009309010093080100930B0100930A01F6
:1004900080616F7E2227089550FD6090010151FD1B
:1004A0006090000152FD6090030153FD60900201D5
:1004B000089550FD6090070151FD6090060152FDC6
:1004C0006090050153FD60900401089550FD609017
:1004D000090151FD6090080152FD60900B0153FD30
:1004E00060900A0108950F931F930FB70F9353B1B4
:1004F0005F70550F503109F451E03BB03A2020FDB8
:100500000E944C0221FD0E94590222FD0E944C02D1
:1005100023FD0E944C0224FD0E94590225FD0E94E9
:10052000590226FD0E94660227FD0E9466022030C5
:1005300011F40E944C02F0E0E2E4E60D749000E059
:10054000B01629F52430A9F02830D1F0203189F0F7
:100550002032B1F0203469F0203891F0203009F0D9
:1005600016C0513031F0523021F0543049F058303B
:1005700039F0543061F0583051F00FE7702E07C059
:10058000513029F0523019F00FE7702E00C0582B6F
:10059000372855B93BB87395743611F47727B224D0
:1005A0000F910FBF1F910F9118950F931F930FB7C6
:1005B0000F9339B03A243BB8203049F0213039F05C
:1005C000223029F0203419F0203809F007C0339583
:1005D000383721F43327616064FD60620F910FBFEB
:1005E0001F910F9118950F931F930FB70F9346B05C
:1005F00040FE11C041FE11C042FE03C043FE06C0D2
:1006000014C0220F203089F421E00FC0269520303D
:1006100061F420E80AC0646002C0686000C0203451
:1006200019F0203809F001C060610F910FBF1F91D0
:100630000F91189500E004BD02E005BD03E806BD7A
:1006400000E00093800002E0009381000BE01CEDCD
:10065000009385001093840001E000936E0001E098
:0606600000936F000895F5
:00000001FF
