:020000020000FC
:020000002BC013
:02001000F0C13D
:02003400C8C141
:1000400082C1407924301912027800101F1C1F1E33
:100050001F1E1F1F1E1F1E1FF8940FEF0DBF08E06D
:100060000EBF00E80093610004E0009361000E946D
:1000700014020FEF04B901E005B90FEF0AB902E06D
:100080000BB900EF07B90FE008B902E00093680070
:100090000FE000936C000AE0A02E00E8902E3327BA
:1000A00000E000930101009300010093030100931D
:1000B00002010093050100930401009307010093DE
:1000C000060121E040E001E0802E0E946101789469
:1000D00060FD0E940A0161FD0E944C0162FD0E94C8
:1000E0003F0163FD0E94A600F3CF009101010030A3
:1000F00059F409E00093010100910001003041F43E
:1001000005E00093000108950A9500930101089508
:100110000A9500930001089500910301003071F4E5
:1001200009E00093030100910201003059F402E05C
:100130000093020103E00093030108950A950093E0
:10014000030108950A95009302010895677F243002
:1001500061F2283009F32031A9F1203209F0089525
:10016000082D013091F08A9400910501003049F486
:1001700009E000930501009104010A950093040130
:1001800008950A95009305010895872C072D0F31D6
:1001900021F00E3149F00C3171F001E000930501BE
:1001A00003E000930401089500E00093050103E0DB
:1001B00000930401089508E00093050102E0009314
:1001C0000401089501E0802E01E00093050100E0A4
:1001D0000093040100910701013049F410910601D8
:1001E000103029F44CE003E011E01093060149308F
:1001F00039F409E00093070100E00093060104C010
:100200000A950093070100C04A95F0E0ECE4E40F82
:10021000749008956E7F0091010103950A3049F5AD
:10022000002700930101009100010395063021F59C
:10023000002700930001243009F408950091030180
:10024000109102010395123059F4043049F400274B
:100250001127009303011093020123FF62600895A8
:100260000A3011F400271395009303011093020143
:1002700008950093010108950093000108956B7F94
:10028000243049F22830D1F22031D9F0203229F03F
:10029000203409F0089508956D7F871491F08394B8
:1002A0000091050103950A3049F4002700930501E8
:1002B0000091040103950093040108950093050142
:1002C000089501E0802E01E00093050100E0009315
:1002D000040125FD0895F0E0ECE4E40F74904395EB
:1002E00000910701023041F410910601113021F410
:1002F00000E0009306014427493039F400E0009300
:10030000070101E00093060108950395009307019A
:10031000089550FD5090010151FD5090000152FD93
:100320005090030153FD50900201089550FD5090EC
:10033000070151FD5090060152FD5090050153FDFB
:100340005090040108950F931F930FB70F9353B16B
:10035000550F503109F451E02BB0292020FD0E94A7
:10036000890121FD0E94960122FD0E94890123FD41
:100370000E94890124FD0E94960125FD0E9496019C
:10038000F0E0E2E4E50D6490243071F0283029F0CB
:10039000203151F0203209F00EC0543061F0583055
:1003A00051F00FE7602E07C0513029F0523019F09C
:1003B0000FE7602E00C0262855B92BB80F910FBF4C
:1003C0001F910F9118950F931F930FB70F932BB099
:1003D00029242BB8213019F0223009F005C03395BB
:1003E000313011F4332761600F910FBF1F910F91CE
:1003F00018950F931F930FB70F9336B030FE6460BC
:1004000031FE686032FE220F33FE2695203019F04F
:10041000203419F004C020E202C021E000C00F9196
:100420000FBF1F910F91189500E004BD02E005BDBC
:1004300003E806BD00E00093800002E00093810025
:100440000BE01CED009385001093840001E0009305
:0A0450006E0001E000936F000895B4
:00000001FF
